{
  "_format": "hh-sol-artifact-1",
  "contractName": "Fundraise",
  "sourceName": "contracts/Fundraise.sol",
  "abi": [
    {
      "inputs": [],
      "stateMutability": "nonpayable",
      "type": "constructor"
    },
    {
      "anonymous": false,
      "inputs": [
        {
          "indexed": true,
          "internalType": "address",
          "name": "from",
          "type": "address"
        },
        {
          "indexed": false,
          "internalType": "uint256",
          "name": "timestamp",
          "type": "uint256"
        },
        {
          "indexed": false,
          "internalType": "string",
          "name": "name",
          "type": "string"
        },
        {
          "indexed": false,
          "internalType": "string",
          "name": "message",
          "type": "string"
        }
      ],
      "name": "NewMemo",
      "type": "event"
    },
    {
      "inputs": [
        {
          "internalType": "address",
          "name": "_address",
          "type": "address"
        }
      ],
      "name": "changeOwnerAddress",
      "outputs": [],
      "stateMutability": "nonpayable",
      "type": "function"
    },
    {
      "inputs": [],
      "name": "getMemos",
      "outputs": [
        {
          "components": [
            {
              "internalType": "address",
              "name": "from",
              "type": "address"
            },
            {
              "internalType": "uint256",
              "name": "timestamp",
              "type": "uint256"
            },
            {
              "internalType": "string",
              "name": "name",
              "type": "string"
            },
            {
              "internalType": "string",
              "name": "message",
              "type": "string"
            }
          ],
          "internalType": "struct Fundraise.Memo[]",
          "name": "",
          "type": "tuple[]"
        }
      ],
      "stateMutability": "view",
      "type": "function"
    },
    {
      "inputs": [
        {
          "internalType": "string",
          "name": "_name",
          "type": "string"
        },
        {
          "internalType": "string",
          "name": "_message",
          "type": "string"
        }
      ],
      "name": "sendFunds",
      "outputs": [],
      "stateMutability": "payable",
      "type": "function"
    },
    {
      "inputs": [],
      "name": "withdrawFunds",
      "outputs": [],
      "stateMutability": "nonpayable",
      "type": "function"
    }
  ],
  "bytecode": "0x608060405234801561001057600080fd5b5033600160006101000a81548173ffffffffffffffffffffffffffffffffffffffff021916908373ffffffffffffffffffffffffffffffffffffffff160217905550610e3a806100616000396000f3fe60806040526004361061003f5760003560e01c806324600fc31461004457806385eac05f1461005b578063865c517214610084578063f8bcba66146100af575b600080fd5b34801561005057600080fd5b506100596100cb565b005b34801561006757600080fd5b50610082600480360381019061007d91906105d0565b61012d565b005b34801561009057600080fd5b50610099610201565b6040516100a691906107e1565b60405180910390f35b6100c960048036038101906100c49190610938565b6103e4565b005b600160009054906101000a900473ffffffffffffffffffffffffffffffffffffffff1673ffffffffffffffffffffffffffffffffffffffff166108fc479081150290604051600060405180830381858888f1935050505061012b57600080fd5b565b600160009054906101000a900473ffffffffffffffffffffffffffffffffffffffff1673ffffffffffffffffffffffffffffffffffffffff163373ffffffffffffffffffffffffffffffffffffffff16146101bd576040517f08c379a00000000000000000000000000000000000000000000000000000000081526004016101b490610a0d565b60405180910390fd5b80600160006101000a81548173ffffffffffffffffffffffffffffffffffffffff021916908373ffffffffffffffffffffffffffffffffffffffff16021790555050565b60606000805480602002602001604051908101604052809291908181526020016000905b828210156103db57838290600052602060002090600402016040518060800160405290816000820160009054906101000a900473ffffffffffffffffffffffffffffffffffffffff1673ffffffffffffffffffffffffffffffffffffffff1673ffffffffffffffffffffffffffffffffffffffff168152602001600182015481526020016002820180546102b890610a5c565b80601f01602080910402602001604051908101604052809291908181526020018280546102e490610a5c565b80156103315780601f1061030657610100808354040283529160200191610331565b820191906000526020600020905b81548152906001019060200180831161031457829003601f168201915b5050505050815260200160038201805461034a90610a5c565b80601f016020809104026020016040519081016040528092919081815260200182805461037690610a5c565b80156103c35780601f10610398576101008083540402835291602001916103c3565b820191906000526020600020905b8154815290600101906020018083116103a657829003601f168201915b50505050508152505081526020019060010190610225565b50505050905090565b60003411610427576040517f08c379a000000000000000000000000000000000000000000000000000000000815260040161041e90610ad9565b60405180910390fd5b600060405180608001604052803373ffffffffffffffffffffffffffffffffffffffff16815260200142815260200184815260200183815250908060018154018082558091505060019003906000526020600020906004020160009091909190915060008201518160000160006101000a81548173ffffffffffffffffffffffffffffffffffffffff021916908373ffffffffffffffffffffffffffffffffffffffff1602179055506020820151816001015560408201518160020190816104ef9190610ca5565b5060608201518160030190816105059190610ca5565b5050503373ffffffffffffffffffffffffffffffffffffffff167fc56140e05f516509ae28110e0f72e17558a7561630dad2647c3ae87d986e365c42848460405161055293929190610dbf565b60405180910390a25050565b6000604051905090565b600080fd5b600080fd5b600073ffffffffffffffffffffffffffffffffffffffff82169050919050565b600061059d82610572565b9050919050565b6105ad81610592565b81146105b857600080fd5b50565b6000813590506105ca816105a4565b92915050565b6000602082840312156105e6576105e5610568565b5b60006105f4848285016105bb565b91505092915050565b600081519050919050565b600082825260208201905092915050565b6000819050602082019050919050565b61063281610592565b82525050565b6000819050919050565b61064b81610638565b82525050565b600081519050919050565b600082825260208201905092915050565b60005b8381101561068b578082015181840152602081019050610670565b60008484015250505050565b6000601f19601f8301169050919050565b60006106b382610651565b6106bd818561065c565b93506106cd81856020860161066d565b6106d681610697565b840191505092915050565b60006080830160008301516106f96000860182610629565b50602083015161070c6020860182610642565b506040830151848203604086015261072482826106a8565b9150506060830151848203606086015261073e82826106a8565b9150508091505092915050565b600061075783836106e1565b905092915050565b6000602082019050919050565b6000610777826105fd565b6107818185610608565b93508360208202850161079385610619565b8060005b858110156107cf57848403895281516107b0858261074b565b94506107bb8361075f565b925060208a01995050600181019050610797565b50829750879550505050505092915050565b600060208201905081810360008301526107fb818461076c565b905092915050565b600080fd5b600080fd5b7f4e487b7100000000000000000000000000000000000000000000000000000000600052604160045260246000fd5b61084582610697565b810181811067ffffffffffffffff821117156108645761086361080d565b5b80604052505050565b600061087761055e565b9050610883828261083c565b919050565b600067ffffffffffffffff8211156108a3576108a261080d565b5b6108ac82610697565b9050602081019050919050565b82818337600083830152505050565b60006108db6108d684610888565b61086d565b9050828152602081018484840111156108f7576108f6610808565b5b6109028482856108b9565b509392505050565b600082601f83011261091f5761091e610803565b5b813561092f8482602086016108c8565b91505092915050565b6000806040838503121561094f5761094e610568565b5b600083013567ffffffffffffffff81111561096d5761096c61056d565b5b6109798582860161090a565b925050602083013567ffffffffffffffff81111561099a5761099961056d565b5b6109a68582860161090a565b9150509250929050565b600082825260208201905092915050565b7f596f7520617265206e6f742074686520636f6e7472616374206f776e65722e00600082015250565b60006109f7601f836109b0565b9150610a02826109c1565b602082019050919050565b60006020820190508181036000830152610a26816109ea565b9050919050565b7f4e487b7100000000000000000000000000000000000000000000000000000000600052602260045260246000fd5b60006002820490506001821680610a7457607f821691505b602082108103610a8757610a86610a2d565b5b50919050565b7f76616c7565206d75737420626520686967686572207468616e20300000000000600082015250565b6000610ac3601b836109b0565b9150610ace82610a8d565b602082019050919050565b60006020820190508181036000830152610af281610ab6565b9050919050565b60008190508160005260206000209050919050565b60006020601f8301049050919050565b600082821b905092915050565b600060088302610b5b7fffffffffffffffffffffffffffffffffffffffffffffffffffffffffffffffff82610b1e565b610b658683610b1e565b95508019841693508086168417925050509392505050565b6000819050919050565b6000610ba2610b9d610b9884610638565b610b7d565b610638565b9050919050565b6000819050919050565b610bbc83610b87565b610bd0610bc882610ba9565b848454610b2b565b825550505050565b600090565b610be5610bd8565b610bf0818484610bb3565b505050565b5b81811015610c1457610c09600082610bdd565b600181019050610bf6565b5050565b601f821115610c5957610c2a81610af9565b610c3384610b0e565b81016020851015610c42578190505b610c56610c4e85610b0e565b830182610bf5565b50505b505050565b600082821c905092915050565b6000610c7c60001984600802610c5e565b1980831691505092915050565b6000610c958383610c6b565b9150826002028217905092915050565b610cae82610651565b67ffffffffffffffff811115610cc757610cc661080d565b5b610cd18254610a5c565b610cdc828285610c18565b600060209050601f831160018114610d0f5760008415610cfd578287015190505b610d078582610c89565b865550610d6f565b601f198416610d1d86610af9565b60005b82811015610d4557848901518255600182019150602085019450602081019050610d20565b86831015610d625784890151610d5e601f891682610c6b565b8355505b6001600288020188555050505b505050505050565b610d8081610638565b82525050565b6000610d9182610651565b610d9b81856109b0565b9350610dab81856020860161066d565b610db481610697565b840191505092915050565b6000606082019050610dd46000830186610d77565b8181036020830152610de68185610d86565b90508181036040830152610dfa8184610d86565b905094935050505056fea2646970667358221220aa851f06d60b86b3c0ee992065914c96ee596bd2c58c7943f31397cd301631b264736f6c63430008110033",
  "linkReferences": {},
  "deployedLinkReferences": {}
}